:020000041000EA
:1000000000B5324B212058609868022188439860DF
:10001000D860186158612E4B002199600221596106
:100020000121F02299502B49196001219960352056
:1000300000F044F80222904214D00621196600F024
:1000400034F8196E01211966002018661A6600F04E
:100050002CF8196E196E196E052000F02FF8012189
:100060000842F9D1002199601B49196000215960AB
:100070001A491B48016001219960EB211966A021F2
:10008000196600F012F800219960164914480160C1
:100090000121996001BC002800D000471248134993
:1000A000086003C880F30888084703B5996A0420EC
:1000B0000142FBD001200142F8D103BD02B5186610
:1000C0001866FFF7F2FF186E186E02BD00000240BE
:1000D000000000180000070000035F00212200005C
:1000E000F4000018222000A00001001008ED00E03C
:1000F00000000000000000000000000074B24E7A12
:1001000000000420E3010010C3010010E903001007
:10011000ED030010F1030010F5030010C101001001
:10012000C1010010C1010010C10100104503001001
:10013000C1010010C1010010C9030010D503001057
:10014000CD010010CD010010CD010010CD01001037
:10015000CD010010CD010010CD010010CD01001027
:10016000CD010010CD010010CD010010CD01001017
:10017000CD010010CD010010CD010010CD01001007
:10018000CD010010CD010010CD010010CD010010F7
:10019000CD010010CD010010CD010010CD010010E7
:1001A000CD010010CD010010CD010010CD010010D7
:1001B000CD010010CD010010CD010010CD010010C7
:1001C00000BE00BE00BE00BE00BE00BE00F03FF894
:1001D000103800BE00202049086006C881F3088856
:1001E00010471E48006800282DD10CA40ECC002911
:1001F00002D000F010F8F9E719491A4A002000E08F
:1002000001C19142FCD1184988471849884700BE6E
:10021000FDE701C901C29A42FBD370470C6501108A
:10022000C0000020C40F00201C7401100000042036
:10023000000004201C740110001004200010042091
:100240000000000070470A480CF0A4FC0047EFF3E0
:100250000580C0B27047000008ED00E0000000D04B
:10026000D00F0020D8AA0020CD02001069AD0010E8
:1002700057560000F8B5C046F8BC08BC9E4670470B
:10028000F8B5C04610B5064C2378002B07D1054BB6
:10029000002B02D0044800E000BF0123237010BDF2
:1002A000209500200000000084020010044B10B5CF
:1002B000002B03D00349044800E000BF10BDC04636
:1002C000000000002495002084020010164B002B33
:1002D00000D1144B9D46402292029A1A9246002168
:1002E0008B460F461348144A121A0EF0A5FB0F4B0B
:1002F000002B00D098470E4B002B00D098470020D1
:10030000002104000D000D48002802D00C480AF01E
:100310002EFD0DF00FFF2000290007F001FA0AF072
:1003200023FDC0460000080000000420000000007B
:1003300081760010D00F0020D8AA00206FAD0010E9
:10034000000000007046C0082CD3EFF309808169DB
:1003500002390978002929D101B50FC8B8470CBC6A
:1003600003C29E461E4B06CB91421ED0083B1A602C
:10037000002909D0EFF3098020388863F0C0444693
:100380004D4656465F46F0C0906B1030F0C8A04610
:10039000A946B246BB4680F309882038F0C802203F
:1003A000C0430047EFF30880D1E770470D4A136858
:1003B0009942FAD801B5890053589C460FC8E047C6
:1003C0000CBC10609E46704701B506F065FC03BC8E
:1003D0008E46C7E701B506F01DFC03BC8E46C1E79B
:1003E000EC03002044450110102304E0202302E028
:1003F000302300E040239C46F0B404AE7546E80884
:1004000001D3EFF309860E4F0FCE0FC70FBC0FC7F6
:100410004046494652465B460FC71DCE3100A60AEC
:1004200000D304316E0900D248311FC7EFF30980B1
:100430006946EFF3148663C7604601490AF028F85D
:10044000D4A7002001480421014B1847E0050020F3
:10045000A5CB001002B4714649084900095649006D
:100460008E4402BC7047C04602B471464908490038
:10047000095C49008E4402BC7047C0460022430814
:100480008B4274D303098B425FD3030A8B4244D35C
:10049000030B8B4228D3030C8B420DD3FF2209029E
:1004A00012BA030C8B4202D31212090265D0030B5D
:1004B0008B4219D300E0090AC30B8B4201D3CB0353
:1004C000C01A5241830B8B4201D38B03C01A524195
:1004D000430B8B4201D34B03C01A5241030B8B4297
:1004E00001D30B03C01A5241C30A8B4201D3CB0282
:1004F000C01A5241830A8B4201D38B02C01A524167
:10050000430A8B4201D34B02C01A5241030A8B4269
:1005100001D30B02C01A5241CDD2C3098B4201D381
:10052000CB01C01A524183098B4201D38B01C01AFF
:10053000524143098B4201D34B01C01A5241030976
:100540008B4201D30B01C01A5241C3088B4201D325
:10055000CB00C01A524183088B4201D38B00C01AD2
:10056000524143088B4201D34B00C01A5241411AF9
:1005700000D20146524110467047FFE701B5002006
:1005800000F0F0F802BDC0460029F7D076E77047CA
:1005900003460B437FD4002243088B4274D30309E4
:1005A0008B425FD3030A8B4244D3030B8B4228D385
:1005B000030C8B420DD3FF22090212BA030C8B42AB
:1005C00002D31212090265D0030B8B4219D300E04B
:1005D000090AC30B8B4201D3CB03C01A5241830BD0
:1005E0008B4201D38B03C01A5241430B8B4201D380
:1005F0004B03C01A5241030B8B4201D30B03C01AA9
:100600005241C30A8B4201D3CB02C01A5241830A22
:100610008B4201D38B02C01A5241430A8B4201D351
:100620004B02C01A5241030A8B4201D30B02C01A7B
:100630005241CDD2C3098B4201D3CB01C01A5241E2
:1006400083098B4201D38B01C01A524143098B426B
:1006500001D34B01C01A524103098B4201D30B0154
:10066000C01A5241C3088B4201D3CB00C01A524179
:1006700083088B4201D38B00C01A524143088B423E
:1006800001D34B00C01A5241411A00D201465241D7
:10069000104670475DE0CA0F00D04942031000D3F6
:1006A0004042534000229C4603098B422DD3030A4B
:1006B0008B4212D3FC22890112BA030A8B420CD35B
:1006C000890192118B4208D3890192118B4204D384
:1006D00089013AD0921100E08909C3098B4201D304
:1006E000CB01C01A524183098B4201D38B01C01A3E
:1006F000524143098B4201D34B01C01A52410309B5
:100700008B4201D30B01C01A5241C3088B4201D363
:10071000CB00C01A524183088B4201D38B00C01A10
:100720005241D9D243088B4201D34B00C01A5241E7
:10073000411A00D20146634652415B10104601D374
:100740004042002B00D54942704763465B1000D3FE
:10075000404201B5002000F005F802BD0029F8D0A4
:1007600016E770477047C046D0400B1CD1409C46EE
:10077000203AD3401843524263469340184370478F
:100780009140031C90409C46203A934019435242AA
:100790006346D340194370478446101C62468C461A
:1007A000191C634600E0C0461FB501F025FE002875
:1007B00001D40021C8421FBD10B501F07DFD4042AB
:1007C000013010BD10B501F017FE002801DB00203C
:1007D00010BD012010BDC04610B501F00DFE00286F
:1007E00001DD002010BD012010BDC04610B501F094
:1007F0009FFD002801DC002010BD012010BDC04677
:1008000010B501F095FD002801DA002010BD01208F
:1008100010BDC0468446081C6146FFE71FB500F0C6
:100820003DFB002801D40021C8421FBD10B500F0D7
:10083000BFFA4042013010BD10B500F02FFB002878
:1008400001DB002010BD012010BDC04610B500F036
:1008500025FB002801DD002010BD012010BDC04691
:1008600010B500F0CDFA002801DC002010BD0120F9
:1008700010BDC04610B500F0C3FA002801DA002010
:1008800010BD012010BDC0461C2101231B0498424D
:1008900001D3000C10391B0A984201D3000A083911
:1008A0001B09984201D30009043902A2105C4018C8
:1008B0007047C0460403020201010101000000006C
:1008C00000000000002B15D1002A13D1002906DBFF
:1008D00001DC002806D00020C043410802E080214E
:1008E0000906002007B4024801A14018029003BD88
:1008F00075FEFFFF03B4684601B5029800F02AF9BF
:10090000019B9E4602B00CBC7047C046002B11D123
:10091000002A0FD1002900D1002802D00021C943AC
:10092000081C07B4024802A14018029003BDC0464B
:1009300035FEFFFF03B4684601B5029800F048F8A1
:10094000019B9E4602B00CBC7047C046F0B5CE4637
:10095000474615042D0C2E0080B50704140C3F0CDF
:100960009946030C7E435D43674363437F19340C10
:10097000E4199C46A54203D980235B029846C444EF
:100980004B4643435143250C36046544360C24043E
:10099000A4195B19591820000CBC90469946F0BD6B
:1009A0009E2110B5C905041CFFF764FF002803D180
:1009B000201C00F0B9FD10BD9E21201CC90500F0CF
:1009C000EFFB00F0B1FD80231B069C466044F2E77C
:1009D000F0B54F464646D646C0B5040082B00D007D
:1009E000914698468B422FD82CD04146484602F07B
:1009F00067FC29000600200002F062FC331A9C46C6
:100A0000203B9A4600D576E04B46524693401F0065
:100A10004B46624693401E00AF4228D825D053462D
:100A2000A41BBD41002B00DA7BE0002200230092D2
:100A30000193012352469340019301236246934060
:100A4000009318E08242D0D9002200230092019343
:100A50000A9B002B01D01C605D600098019902B0D8
:100A60001CBC90469946A246F0BDA342D7D90022AD
:100A70000023009201936346002BE9D0FB079846C0
:100A8000414672080A437B0866460EE0AB4201D13C
:100A9000A2420CD8A41A9D41012024196D410021C5
:100AA000013E24184D41002E06D0AB42EED9013E46
:100AB00024196D41002EF8D1009801995346001970
:100AC0006941002B23DB2B005246D3402A006446A9
:100AD000E2401C0053461500002B2DDB2600574634
:100AE000BE40330026006746BE403200801A99415E
:100AF00000900191ACE7624620239B1A4A46DA40F7
:100B00006146130042468A4017001F4380E7624651
:100B100020239B1A2A0066469A402300F340134381
:100B2000D4E76246202300219B1A00220091019203
:100B30000122DA40019280E72023624626009B1AB8
:100B4000DE402F00B0466646B74046463B00334382
:100B5000C8E7C046F0B583B016001F0000900191B1
:100B600002F0BAFB04000D0002000B003000390057
:100B7000FFF7ECFE009A019B121A8B4108992000A6
:100B80000A604B60290003B0F0BDC046F8B5574677
:100B90004E464546DE464402E0B546008846640AB5
:100BA000360EC70F002E63D0FF2E24D08023E40022
:100BB000DB041C43002399469B467F3E4346424646
:100BC0005D02D20F5B006D0A1B0E9046924665D007
:100BD000FF2B55D080220021ED00D2047F3B15432E
:100BE000F61A43464A467B400F2A00D98DE06D48ED
:100BF000920082589746002C54D108239946063B10
:100C0000FF269B46DAE70025534602291BD003291D
:100C100000D1BFE0012928D030007F30002820DD3E
:100C20006A0704D00F222A40042A00D004352A0182
:100C300003D530005C4A80301540FE2803DCAC014F
:100C4000640AC2B201E0FF2200246402D205600AF5
:100C5000DB07104318433CBC90469946A246AB467E
:100C6000F8BD0122101A1B287CDD00220024ECE7CD
:100C7000002C1DD104239946033B00269B469DE78B
:100C8000FF3E002D20D1022143464A467B400A43C5
:100C90000F2AD8D84548920082589746002D19D17E
:100CA0000121F1E70C239946093BFF269B4685E786
:100CB0002000FFF7E9FD7626431F9C400023764283
:100CC000361A99469B4679E74A4603231A439146CA
:100CD000032186E72800FFF7D7FD431F36189D4004
:100CE000763600217DE780240023E403FF22ACE771
:100CF00000258023DB031C4228D01D4226D12B4334
:100D00005C02640A4346FF229FE762016C01A24233
:100D100024D21B210025013E012710006D00520046
:100D2000002801DB944201D8121B3D430139002900
:100D3000F3D11400621E944125436DE7BA4659462B
:100D400025005346022900D061E77CE78023DB03BE
:100D50001C436402640A3B00FF2276E7121B1A213F
:100D60000125D9E79E362A00B5402C00C240651EF9
:100D7000AC411443620704D00F222240042A00D061
:100D80000434620103D4A401640A00225DE7012255
:100D900000245AE78024E4032C436402640AFF22FF
:100DA00053E7C046D43D0110FFFFFFF7143E01108A
:100DB00070B542004E024C0045026D0A120EC30F80
:100DC000760A240EC90FFF2A0FD0FF2C11D0012064
:100DD000A24200D070BDB542FCD18B420DD0002A9A
:100DE000F8D12800451EA841F4E70120002DF1D1DB
:100DF000EBE70120002EEDD1E9E70020EAE7C0464D
:100E000070B54A004E02450244006D0A240EC30F1D
:100E1000760A120EC90FFF2C15D0FF2A0ED0002C17
:100E200015D1002A01D1002E1CD0002D14D08B42E8
:100E300027D00220013B1840013870BD002EEED0B3
:100E400002204042F9E7002DFAD1FF2A0ED0002AF5
:100E50000ED1002EEDD00BE001230139994308009B
:100E60000130EAE70020002DE7D0E2E7002EE7D1CD
:100E70008B42DED1944205DD0221581E0840013824
:100E8000DBE70024A24204DCB542D2D80020B54200
:100E9000D3D2581E012398430130CEE730B542002B
:100EA00044024D02C30F4800640A120E6D0A000E80
:100EB000C90FFF2A12D0FF280CD0002A12D1002817
:100EC00019D1002D17D1002C2BD00220013B184046
:100ED000013826E0002DF0D0022022E0002CFBD1CA
:100EE000FF281FD000281FD1002D1DD10220013B5B
:100EF0001840013815E0002C0ED08B42E5D10022BD
:100F0000904204DCAC42E0D80020AC4209D2581E2A
:100F100001239843013004E001230139994308007B
:100F2000013030BD002DD7D18B42CED18242E7DDDA
:100F30000221581E08400138F3E7C046F0B54E467E
:100F400057464546DE46E0B543025B0A450083B09E
:100F50000F1C99462D0EC60F002D57D0FF2D24D003
:100F60008020DB00C0041843002381469A469B463C
:100F70007F3D7C027A00FB0F640A120E984623D054
:100F8000FF2A4BD0E30080240020E4047F3A1C4376
:100F9000AD186B1C47460193534677403A000F2B20
:100FA00048D87D499B00CB589F46002B00D085E058
:100FB00008339A46063B9B467C027A00FB0FFF25CE
:100FC000640A120E9846DBD1002C00D090E0524605
:100FD00001231A4392460120DBE74C46584617008E
:100FE000022824D0032800D1CFE0002200230128CA
:100FF0004DD15802D205400AFF071043384303B0D1
:101000003CBC90469946A246AB46F0BD002B5BD156
:1010100004239A46033B00259B46AAE7FF35002C94
:1010200060D1524602231A4392460220B1E7FF22C2
:101030000023DEE74B461B0C9C464B462604360C31
:10104000180461463300220C6446000C43434E43AF
:101050005043544380191A0C1218964203D9802128
:1010600049028C4664441B041B0C1004C018830105
:101070005E1EB341800E1843130C1B199B010343E2
:101080001C00230179D5012362081C401443019AF6
:101090007F32002A4DDD630704D00F232340042B49
:1010A00000D00434230103D53C4B019A1C4080320C
:1010B000FE2ABCDCA3015B0AD2B29AE70C239A4653
:1010C000093BFF259B4654E71800FFF7DDFB4A4626
:1010D000431F76259A4000236D4291462D1A9A4669
:1010E0009B4646E7524603231A439246032050E7A5
:1010F0002000FFF7C9FB431F2D1A9C40763D0020BE
:1011000047E780230027DB03FF2272E7424666E7BA
:101110004C463200584662E780234A46DB031A42B7
:1011200022D01C4220D123435B025B0A4746FF22A8
:101130005FE701239A1A1B2A21DC23000199D3407F
:101140009E318C401A0023005C1EA34113435A07B2
:1011500004D00F221A40042A00D004335A0111D4BB
:101160009B015B0A002244E780234A46DB031343CA
:101170005B025B0A3700FF223BE7019587E700220D
:10118000002336E70122002333E78023DB032343D8
:101190005B025B0AFF222CE7543E0110FFFFFFF7C2
:1011A000F8B54746CE464400C20F80B54702480214
:1011B000400A8446664648007F0A240EF600250051
:1011C0009046FB00000EC90FB146FF2800D185E014
:1011D00001267140261A914257D0002E43DD002887
:1011E00000D07FE04946002900D1AAE0013E002E50
:1011F00000D0F7E05B1A5A0100D48BE09B019C09F8
:101200002000FFF741FB05388440854200DDD3E034
:10121000451B230020200135EB40451BAC40621EDE
:1012200094412343072400251C40012241460A40E3
:10123000002C04D00F211940042900D00433590197
:1012400000D480E00135ECB2FF2D00D0A3E0FF24F4
:1012500000235B02E405580AD207204310430CBC6C
:1012600090469946F8BD002E74D1601CC0B201288A
:1012700000DCA7E04A469C1A620100D5B6E0002CCB
:10128000BED1002200240023E3E7002E00DC85E02D
:10129000002846D0FF2C49D080224846D204104373
:1012A000814601221B2E09DC20204C46801B8440F5
:1012B0004A462000F240441EA04102439B185A01B6
:1012C00028D50135FF2D00D1A8E00122072494493B
:1012D0001A405B080B4013431C40A6E7002E00D0C9
:1012E00078E775E7FF2C54D080224946D204114399
:1012F000894601221B2E09DC20214846891B884093
:101300004A460100F240481E81410A439B1A5A0195
:1013100000D573E7012241460A40590700D089E70A
:1013200011E04846002858D1FF2C0CD1DB08002BD7
:1013300000D18CE78020C00303435B025B0AFF24DB
:1013400087E7FF2C25D0DB08FF2DF0D05B025B0A7E
:10135000ECB27EE7002C4DD0FF2818D08024E404A6
:10136000724223431B2A00DDC4E01C002025D44028
:10137000AA1A93405A1E934123434A460500D31AA2
:10138000884638E7721CF8D0F243FF28EAD10A00F9
:101390004B46FF25D7E79B015B0A5AE7002E41D158
:1013A000651CE9B2012945DDFF2D00D14FE7072477
:1013B0004B445B081C4038E707225A4B2D1A234048
:1013C000144032E7002C1DD1002B7AD14B46002B64
:1013D00000D191E00A000025B5E7013E002E19D1A9
:1013E0004B446CE7FF2C84D1FF25ACE74A46884686
:1013F000D41A05E7002BC5D10A00FF28C8D0050084
:101400004B46A0E7002B49D14B46002B77D00A0072
:10141000FF2598E7FF2C00D043E787E70A00FF2469
:10142000002316E7002C15D1002B57D1FF28E6D159
:101430004B467BE7002C20D1002B57D04946002992
:1014400053D04B445A0168D50724364A1C40012525
:101450001340EAE6FF28EBD08022D2047642134301
:101460001B2E53DC2025AD1B1A00AB40F2405C1E46
:10147000A34113434B44050021E7002BD8D0494634
:10148000002900D152E78021C9030F4200D14DE766
:101490006046084200D049E74B4647E74846FF25EB
:1014A000002800D14FE78022D203174204D06046C3
:1014B000104201D14B46884601224146FF250A4091
:1014C00041E7484600281FD01A1A500120D54A4645
:1014D0000724D31A1C4088460025A6E6741CC9D0F0
:1014E000F643FF28BCD14B4620E799464B460025E2
:1014F000DB082BE7012340E700220023A9E6802335
:101500000022DB03FF24A4E600251CE70123B1E74A
:10151000002AF1D013000025FCE60025FAE6C046BB
:10152000FFFFFF7DFFFFFFFB41024200C30F490A9F
:10153000120E00207E2A0DD99D2A0CD8802000048E
:101540000143952A0ADC9620821AD1404842002B9A
:1015500000D108007047034A9818FBE7963A91407B
:10156000F4E7C046FFFFFF7F70B500283DD0C317EA
:10157000C5185D40C40F2800FFF786F99E22121A95
:10158000962A07DCD2B2082833DD08388540680285
:10159000400A23E0992A0BDD052329001B1AD940B4
:1015A00003001B339D402B005D1EAB4119430D0012
:1015B000052801DD431F9D402B000F490B406E079E
:1015C00009D00F263540042D05D004335D0102D526
:1015D0009F220B40121A9B01580AD2B24002D20538
:1015E000400AE4071043204370BD0024002200207D
:1015F000F4E76802400AF1E7FFFFFFFB70B5041E45
:1016000034D0FFF741F99E22121A962A07DCD2B293
:1016100008282EDD083884406002400A21E0992A1B
:1016200009DD030021001B3399404B1E994105231E
:101630001B1ADC400C43052801DD431F9C4023009E
:101640000D490B40650709D00F252C40042C05D00F
:1016500004335C0102D59F220B40121A9B01580AE9
:10166000D2B24002D205400A104370BD00220020D1
:10167000F7E76002400AF4E7FFFFFFFBF0B54F46D3
:101680004646D6460C000903C0B5490A470F5E001E
:1016900039431F03DB0F9C4665007B0A570F1F432E
:1016A0006D0DE40F760DA146C000B846D200AB1B0D
:1016B00064457BD0002B5FDD002E00D0A4E03E000F
:1016C000164300D112E15E1E002E00D09EE1871A63
:1016D0004346B84280410125C91A4042091A0B020B
:1016E00000D431E149024E0A002E00D16EE13000F3
:1016F000FFF7CAF80300083B1F2B00DD61E1202241
:101700003900D21A9E40D1409F400E439D4200DDD9
:1017100051E15D1B6B1C1F2B00DD7CE12021C91AF0
:101720003D0030008F408840DD40791E8F41310000
:1017300007222843D940002507433A40002A09D010
:101740000F233B40042B05D03B1DBB42BF417F42D2
:10175000C9191F000B0200D426E26A1CC64B5505AE
:101760006D0D9A4200D106E1C44AFF080A405307B2
:1017700052023B43120B8EE0002B00D0B8E06B1CF2
:101780005B055B0D012B00DC30E1871A4346B84254
:10179000B641CB1A76429E1B330200D54CE13B008A
:1017A0003343A1D100220024002570E0002B00DC8F
:1017B000E5E0002E00D183E0AF4EB54260D0802638
:1017C00036043743B846382B00DC3EE1434613432A
:1017D0001F007A1E97413F188742804140420918F6
:1017E0000B0200D4B0E0A44B01359D4200D1C3E010
:1017F000A24A7B080A4001210F401F435108D3072A
:1018000007221F433A4099E79B4EB54238D08026C5
:1018100036043743B846382B00DDDCE01F2B00DCF4
:1018200030E11E004746203EF740BC46202B04D046
:101830004026F31A46469E403243170063467A1EFE
:1018400097411F43CCE0002B00D104E243461343F1
:1018500000D159E14B07C00818438023C9081B0376
:10186000194208D04546ED081D4204D14346D00830
:10187000590708432900420FC9007F4D1143C0009A
:101880004B07CA087C49C00803438D4268D0120345
:101890006D05120B6D0D002112031800130B0A0DBC
:1018A00012051A43764B2D0513402B435B00E407CA
:1018B0005B08234319001CBC90469946A246F0BD24
:1018C0003E00164312D05E1E002E00D000E18718A5
:1018D0008742804141444042091801250B0233D51B
:1018E000022585E764463300414610001D00C7E726
:1018F000002D00D0DAE00C000443F3D05C1C00D1D2
:101900009FE15D4CA64200D12FE1DB43382B00DD87
:1019100066E11F2B00DD83E120240500E41A0F009F
:10192000DD40D940A0404346A7405B1A441EA04179
:1019300098462F433843171ABA42924143465242BF
:10194000991A64463500CAE607223A40002A00D0B8
:10195000F6E64B07CA084849FF083B438D4296D13B
:101960001900114300D19EE1802109030A431203AB
:10197000120B414D8FE71500002200238BE7002B4F
:1019800000D0C7E06B1C5F057F0D012F00DCF1E08C
:10199000394DAB4200D1B9E085180A008542894132
:1019A0004244494251180722CF076D082F43490886
:1019B0003A401D00C2E607223049ED1A31403A4054
:1019C000BCE63E002838864000279FE63800FEF738
:1019D0005BFF20308EE6434613431F007A1E97417B
:1019E000C71BB84280414042091A78E60E003B000E
:1019F00006431343002D61D1002E00D0F4E0002BEC
:101A000000D11BE164463900100039E71A4FBB4290
:101A10007AD03300FFE630001F3DE840202B03D092
:101A20004021CB1A9E4037437B1E9F41072207432C
:101A30003A400021002589E7171A4346BA42B641C9
:101A4000591A76428E1B64464EE61F2B00DDADE030
:101A500020264746F61AB740B9461700B246DF407F
:101A60004E463E4337005646B240561EB2411743DB
:101A70004246DA408918AEE6FF070000FFFF7FFF0D
:101A8000FFFF0F8020264746F61AB740B9461700D9
:101A9000B246DF404E463E4337005646B240561EE1
:101AA000B24117434246DA40891A99E77F4CA64271
:101AB0005BD0802424045B42214327E7002E0CD115
:101AC000002B00D1CBE0644639001000774DD7E6FB
:101AD000764FBB4218D0330075E6002B14D04B076D
:101AE000C00818438023C9081B03194207D0FC080B
:101AF0001C4204D17907D0080843E14621004C4636
:101B0000420FC9001143C000684DB9E61D00002214
:101B10000023C0E6002D5BD10D00054300D1E2E6B5
:101B20005D1C00D1B0E0614DAE421FD0DB43382BCD
:101B300071DC1F2B00DD96E020250F00ED1AAF4071
:101B4000B9460700AA46DF404D463D432F005546A3
:101B5000A840D940451EA84188440743BF18974272
:101B600092415142414435003AE6644635004146CF
:101B7000100085E60B000343002D00D063E6002B28
:101B8000F5D04346134300D17AE687188742804157
:101B900007224144404209183A400B0200D4D5E6DE
:101BA000434B01351940C9E5380069E61E00474638
:101BB000203EF740BC46202B04D04026F31A464670
:101BC0009E403243170063467A1E97411F4302E648
:101BD000364DAE42CAD080252D045B422943A6E78C
:101BE0000843411E8841A6E6002B00D148E6871A2B
:101BF0004346B842B641CB1A76429E1B33024BD5C0
:101C0000171A4346BA429241591A5242891A072278
:101C100064463A4092E501430F00791E8F419DE7EB
:101C20001C000F00203CE740202B03D04024E31A87
:101C300099400843411E884138437CE60022002435
:101C400025E6171A4346BA429241591A5242891A56
:101C50006446350043E541461000144D10E68022ED
:101C60000024120380E61D000F00203DEF40BC461B
:101C7000202B03D04025EB1A994008430700634608
:101C8000781E87411F4369E7871897429B4141446B
:101C90005B42C9183500A3E53B003343CED0072291
:101CA00031003A4052E600231A00F4E5FF07000035
:101CB000FFFF7FFFF0B55746DE464E464546E0B58E
:101CC000834607000E03480085B092461C00360B81
:101CD000400DCD0F002800D19DE0954B984239D0A2
:101CE0008023F6001B041E43924A7B0F3343994620
:101CF000944603006344009300230026FF000293F0
:101D000023031B0B98466300E40F52465B0D0194BE
:101D100000D1B3E086498B4200D19EE04246D1001B
:101D2000802212040A435146490F11438B468149D0
:101D300052468C4600996344CB1A0021D20000938E
:101D40002B0063409A460F2E00D905E17A4BB6006E
:101D50009B599F465B463343994600D0B8E0022327
:101D60000826002700900293CAE7CB463A00029962
:101D70000195019B9A46022927D0032900D180E2D0
:101D8000012944D06D49009B8C4663441C00002C03
:101D900038DD530700D013E2D2085B46DB0109D5DA
:101DA0005946674B19408B468021C9008C46009BE1
:101DB00063441C00634B9C4207DC5B4664055F0781
:101DC0005B0217431B0B620D02E000230027584AF9
:101DD00000211B031C0B0B0D1B05234314055A4A42
:101DE000380013401C4353466400DB0764081C435F
:101DF000210005B03CBC90469946A246AB46F0BDDA
:101E00000122524201231B1B382B00DCADE10022D2
:101E100000230027DCE75B46334399465ED0002E63
:101E200000D18AE13000FEF72FFD03000B3B1C2B95
:101E300000DD7BE11D22D31A5A460100DA40083941
:101E40008E4013005F46334399468F403F4B002638
:101E50001B1A00930023029352E7414653460B435B
:101E60003B499B468C46009B634400935B46002B9A
:101E70003BD1022300221E43022161E74346134364
:101E80009B4637D04346002B00D162E14046FEF727
:101E9000FBFC03000B3B1C2B00DD53E10200414621
:101EA000083A914088461D21CB1A5146D9400B0073
:101EB00041460B439B46534693401A00009B2549DD
:101EC0009C46604403008C4663440093002137E73E
:101ED0000323B14600900C26029311E700230093E0
:101EE00001330426002702930AE70323C3461E4357
:101EF000032125E701331E430022012120E70023AF
:101F00009A46802300271B03094A61E7802349463C
:101F10001B03194200D1E2E05946194200D0DEE02D
:101F20000B431B0317001B0BA246014A50E7C04698
:101F3000FF07000001FCFFFF943E0110FF030000BB
:101F4000FFFFFFFEFE070000FFFF0F800DFCFFFFFD
:101F500001F8FFFFF3030000D94500D9CBE000D121
:101F6000C6E03C0048460027009B013B00935B46CF
:101F7000160E1B021E431302984633041B0C99468F
:101F8000310C0191FEF700FB4A4642430B04210C41
:101F9000050019438A4207D98919013D8E4203D8A9
:101FA0008A4201D9851E8919881A0199FEF7ECFA2F
:101FB00009048C464A46210464464243090C030046
:101FC00021438A4204D98919013B8E4200D8F1E0AD
:101FD0002D041D43AB464346891A4246280C120481
:101FE0001D0C5B46140C22001B041B0C5A4303946B
:101FF0006B434443029568431B19150CEB189C4234
:1020000003D980246402A44660441C0C15041B04FC
:102010002D0C20185D19814277D373D00C1AA24A77
:102020007D1BAF42BF419446009B7F426344E01B4F
:102030001C00864200D1DBE00199FEF7A5FA4A4672
:1020400042430B04290C070019438A4207D9891916
:10205000013F8E4203D88A4201D9871E8919881A06
:102060000199FEF791FA09044A46894629044D462A
:102070004243090C030029438A4207D98919013BCD
:102080008E4203D88A4201D9831E89193F04891AD6
:102090003A00039F1A43380013041B0C584381462F
:1020A0000298150C6F43434345434846000C844651
:1020B000DB1963449F4203D9802040028446654473
:1020C00048461F0C00041B04000C7D191818A94277
:1020D00000D284E000D17FE001231A4357E6802339
:1020E0004A461B0313431B031B0BAA466F4A6FE6AA
:1020F000BA4200D935E74B46DC0758087B081C4339
:10210000FF0734E70024AF4289D247444745A44142
:102110005B466442A4196418013BA6421ED2A04249
:102120006DD800D1B6E0241A9B4678E703005A46E2
:10213000283B9A400027914688E65846FEF7A4FBC4
:10214000203072E603005246283B9A409346002214
:10215000B4E65046FEF798FB20309AE6A642E2D15C
:10216000B845DCD9341A9B4659E71F2B65DC504C27
:102170000099A4465C46614408008C4011008240EE
:10218000D940501E82410C4314435A46DA40130092
:10219000620709D00F222240042A05D02200141D14
:1021A0009442894149425B181A0262D501220023F8
:1021B00000270DE68A4200D80AE7831E891907E73F
:1021C0000F231340042B00D1E6E5171D97429241DF
:1021D00053429B44FA08E0E5002800D1D7E5711886
:1021E000531EB14227D3A94215D358D01A0073E722
:1021F000002B00DC04E6012300229B44CDE50223F2
:102200004744474589415B429C46494289190C191C
:10221000E344241A03E743465F0047459B41B84621
:102220005B429E19023A8919A94200D054E7404501
:1022300000D051E7ABE51A00F6E71F215F4649429F
:102240000C1BE740202B07D01A49009B8C466344A7
:1022500018005B4683401A43501E82413A430727C9
:102260000023174009D00F21002311401400042936
:1022700095D122005F075B021B0BD2081743002297
:10228000A6E5802359461B030B431B0317001B0BBA
:10229000064A9DE5BD42B2D89B460024BFE6804574
:1022A000B9D31A00C3E7C046FF030000FF070000D0
:1022B0001E0400003E040000F0B54F464646D646D8
:1022C0008446C0B58046194E18030F034D00000B1D
:1022D0005C0082463F0B6D0DC90F9146640DDB0F0C
:1022E0000120B5420AD0B44203D0A54201D15745DE
:1022F0000CD01CBC90469946A246F0BD66463E43B3
:10230000F7D1AC42F5D154461443F2D10120C8456F
:10231000EFD1994207D0002DEBD163461F4338001F
:10232000471EB841E5E70020E3E7C046FF0700008D
:10233000F0B54F464646D6464D00C0B50E03C90F10
:102340008A462C491F035C008046360B6D0D914672
:102350003F0B640DDB0F8D421ED08C4216D0002D3A
:102360001ED130438446002C01D13A4323D062462B
:10237000002A1AD09A4529D0514602200139084036
:1023800001381CBC90469946A246F0BD3900114365
:10239000E5D002204042F4E73043FAD1AC420FD0FE
:1023A000002C0FD13A43E7D00CE00122013B9343CC
:1023B00018000130E5E763460020002BE1D0DBE7A1
:1023C0003A43E6D19A45D7D1A542D5DCA54205DBF3
:1023D000BE42D1D808D00020BE42D2D250460123FE
:1023E000013898430130CCE7C845C5D80020C8451E
:1023F000F4D3C6E7FF070000F0B54F464646D64681
:102400004D00C0B50E03C90F8A462E491F035C005C
:102410008046360B6D0D91463F0B640DDB0F8D42F0
:1024200018D08C4211D0002D18D130438446002C96
:102430001ED13A431CD163460020002B30D05146B8
:1024400002200139084001382AE039001143EAD05E
:10245000022025E03043FBD1AC4226D0002C26D10F
:102460003A4324D15146022001390840013817E08F
:102470006246002A0FD09A45E1D1A54205DBBE4253
:10248000DDD819D00020BE420AD2504601230138BF
:102490009843013004E00122013B934318000130CE
:1024A0001CBC90469946A246F0BD3A43D0D19A450D
:1024B000C5D1A542C3DCE0E7C845C0D80020C84567
:1024C000E3D3EDE7FF070000F0B55746DE464E4682
:1024D0004546E0B5834606000F03480087B09246A4
:1024E0001D003F0B400DCC0F002800D16FE0DE4BEC
:1024F000984238D08023FF001B041F43730F3B43D7
:102500000193DA4B0027994600239B46F60081444D
:102510002B0369001B0B52469846490DED0F00290D
:1025200000D185E0D04B994200D173E04346DA00F8
:1025300080231B0413435246CC48520F8446134356
:10254000524600206144D200894421006940009134
:102550008C46012149448A460F2F00D990E0C44996
:10256000BF00CF59BF465B463B43019300D06AE1B1
:1025700002230827002681469B46C9E732005846B9
:10258000019B61460091022800D175E0032800D12B
:10259000FEE1012800D02CE10023002700260025C1
:1025A0003F032A0D3F0BB34812053A4302401B0577
:1025B0001343009A5B00D1075B080B4330001900FE
:1025C00007B03CBC90469946A246AB46F0BD5B4680
:1025D0003B43019300D12FE1002F00D1A5E138004A
:1025E000FEF752F903000B3B1C2B00DD96E11D2288
:1025F000D31A5A460100DA405E4608398F4013006C
:102600008E403B4301939C4B00271B1A99460023A5
:102610009B467DE7414653460B4393498C46E14434
:10262000002B00D01AE102220220174300228CE77F
:10263000134300D10DE14346002B00D181E1404618
:10264000FEF722F902000B3A1C2A00DD72E10100BC
:10265000434608398B4098461D239A1A5346D34067
:102660001A004346134352468A404946081A824993
:1026700089468144002068E77B4B002700268EE7CF
:10268000140C1204120C1100370C3604350C79436B
:1026900028008C462E006043604483465643210048
:1026A000300C80465846794340440291844506D90F
:1026B0008846802149028C46E04441460291360416
:1026C000010C360C00048B4681191E0C1B041B0CDC
:1026D0000391190079438C46280075436544A84648
:1026E0005843050C45447743A94203D98021490248
:1026F0008C466744290C8C4639000004000C2D04DC
:102700002D186144AB4405915946049101990F0479
:102710003F0C080C390051434243904602008C465E
:10272000090C8B4662437C4344445C44A04503D976
:102730008021490288464244210C884661460904AA
:10274000090C8C4639005943434370437E430F0CB8
:10275000F6182404BE19644442448C46B34203D99B
:1027600080235B0298464044029B61469846049B46
:10277000370443449B46AB45AD416B420D0405997C
:102780002D0C8C467F196744FD18A8465D462D190F
:10279000A542A44193466442A446C344DC448F420C
:1027A000BF4198459B4193459241A445A4415B425A
:1027B0007F421F43360C52426442BF192243BF1866
:1027C000624638184302D20D039913436A020A4342
:1027D000501E82416146ED0D2A434E023243D9011B
:1027E00000D4B3E00126500832400243DE073243F2
:1027F0005B08224C5444002C62DD510709D00F20A5
:102800001040042805D0101D9042924152429B185E
:102810000200D90104D580241948E400034054443F
:102820001848844200DD27E75E075B02D2081F0BD1
:10283000630516435B0DB2E6002399460133042776
:1028400000269B4664E60323019781460C279B469E
:102850005EE6012201201743002276E603230320CF
:102860001F43434671E6C046FF07000001FCFFFF1F
:10287000D43E0110FFFF0F800DFCFFFFFF0300009F
:10288000FFFFFFFEFE0700000023802700933F03A9
:102890000026434B83E6019B3200A446584670E66F
:1028A000AC466EE6802701993F0339422DD03B426A
:1028B0002BD11F433F033F0B00951600384B6EE6AC
:1028C00001252D1B382D00DD66E61F2D40DC354827
:1028D0001C005044160082408440EE40501E82414D
:1028E00034431443EB40620709D00F222240042AEC
:1028F00005D02200141D9442804140421B181A0248
:102900003ED501230027002649E68027019B3F038F
:102910001F433F033F0B0094214B40E603005A4600
:10292000283B9A40002601926DE65846FDF7ACFF21
:10293000203057E603005246283B9A4013000022FD
:1029400093E65046FDF7A0FF20307BE6CA4650E7ED
:102950001F201E004042041BE640202D03D0124CD5
:102960005444A3401A43501E824132430726002795
:10297000164009D00F200023104014000428B9D1BC
:1029800022005E075B021F0BD2081643002306E6F7
:1029900080273F031F433F033F0B1600004BFEE51C
:1029A000FF0700001E0400003E040000F8B5574673
:1029B0004E464546DE460C000903E0B5490A460F7F
:1029C0005F0031431E03DB0F760A9B46530F3343F0
:1029D000C84E6500C000E40FD2006D0DA2468146CE
:1029E0007F0D9C469046B74200D1B9E05B46012678
:1029F00073409B46EE1BA34500D183E0002E63DDB0
:102A0000002F00D0B1E06346134300D123E1731ED1
:102A1000002B00D0BAE1861A6346B04280410125FE
:102A2000C91A4042091A0B0200D447E149024B0A75
:102A300098464346002B00D189E14046FDF724FF2C
:102A40000300083B1F2B00DD7CE120223000D21A5E
:102A50004146D040994002009E400A439D4200DD1D
:102A60006AE15D1B6B1C1F2B00DD94E1202110002F
:102A70003500C91A8E40DA408840DD40711E8E4113
:102A8000110007222843002506433240002A09D0BE
:102A90000F233340042B05D0331DB342B641764299
:102AA00089191E000B0200D43DE26A1C914B5505AA
:102AB0006D0D9A4200D119E18F4AF6080A40570776
:102AC00052023743120B9BE0002E00D0C5E06E1C73
:102AD0007605760D012E00DC48E16746861ACB1B91
:102AE000B042BF417F42B8461F004346FF1A3B0039
:102AF000B8461B0200D55FE137439AD1002200247B
:102B0000002579E0002E00DCFAE0002F00D18DE0F6
:102B1000784B9D4267D0802367461B041F43BC4609
:102B2000382E00DC52E1634613435A1E93411E18AF
:102B300086428041404209180B0200D4BEE06D4B32
:102B400001359D4200D1D2E06B4A73080A40012151
:102B50000E401E435108D30707221E43324095E71B
:102B60001E00164300D045E740E7624B9D423AD035
:102B7000802367461B041F43BC46382E00DDEBE074
:102B80001F2E00DC3AE133006746203BDF403B006C
:102B9000202E05D04027BF1B6646BE4032439046DC
:102BA0004646721E96413343DAE0002B00D114E210
:102BB0006346134300D168E180234E07C008C9086B
:102BC0001B030643194208D06046C008184204D1CE
:102BD00063460100D2085E071643F3009946C90018
:102BE000720F444D11434B46DE08424B4F073743AB
:102BF000CA089D4200D16EE012036D05120B6D0DE7
:102C000000211203130B0A0D12051A433B4B2D052D
:102C100013402B435B00E4075B0823433800190093
:102C20003CBC90469946A246AB46F8BD634613436A
:102C300011D0731E002B00D007E186188642804118
:102C400061444042091801250B0237D502257BE774
:102C50003E00614691463500C5E75C46002D00D038
:102C6000E1E00B000343F3D0731C00D1ACE1214B36
:102C70009F4200D13AE1F343382B00DD6FE11F2B77
:102C800000DD8CE120250E00ED1AAE40B0460600B6
:102C9000AA46DE40454635432E005546D940A84059
:102CA0006346451EA8415B1A9C463043161AB24241
:102CB000924163465242991A3D00B4E607223240DF
:102CC000002A00D0E4E60B4BF6084F073743CA084A
:102CD0009D4200D090E73B00134300D1A6E1802342
:102CE0001B031A431203120B024D89E71500002241
:102CF000002785E7FF070000FFFF7FFFFFFF0F8032
:102D0000002E00D0C7E06B1C5E05760D012E00DCA6
:102D1000F0E0C84DAB4200D1B9E085180A00854209
:102D200089416244494251180722CE076D082E435B
:102D3000490832401D00A9E6BF49ED1A114007229B
:102D40003240A3E6320028388240002686E6300072
:102D5000FDF79AFD203073E6634613435A1E9341F4
:102D6000C61AB04280414042091A5CE60E0067462E
:102D700006431743002D5ED1002E00D0F3E0002F54
:102D800000D11EE15C46614691462CE7A94FBE4248
:102D90007BD01E00F1E610001F3DE840202B03D041
:102DA0004021CB1A9A401643731E9E4107220643C8
:102DB00032400021002583E7161A6346B242804163
:102DC000591A40420B1A98465C4632E61F2E00DD27
:102DD000ABE02027BB1B9A4663465746BB4099464B
:102DE00013004F46F3401F433B005746BA40571E5F
:102DF000BA4113436246F240891898E62027BB1B6C
:102E00009A4663465746BB40994613004F46F340E7
:102E10001F433B005746BA40571EBA411343624610
:102E2000F240891A9CE7834B9F425FD080252D0496
:102E30007342294320E7002E0CD1002F00D1D0E0AF
:102E40005C46614691467B4DCDE67A4FBE421CD032
:102E50001E0065E6002F18D0C0084E0706438020EC
:102E6000C9080003014208D06346DC08044204D1CB
:102E70002100DA46D2085E071643F3009946012482
:102E80005346C900720F11431C406A4DABE61D004A
:102E900000220027B4E6002D59D10B00034300D1D6
:102EA000D6E6731C00D1B2E0624B9F421ED0F343C2
:102EB000382B6FDC1F2B00DD97E020250E00ED1A6C
:102EC000AE40B0460600AA46DE40454635432E00D9
:102ED0005546A840D940451EA8418C440643B61823
:102EE00096429241514261443D0025E63D006146D3
:102EF000914678E60B000343002D00D055E6002BE9
:102F0000F5D06346134300D16DE6861886428041B2
:102F100061444042091800220B0200D4D0E6464B1F
:102F200001351940B2E5B1465DE633006746203B06
:102F3000DF403B00202E05D04027BF1B6646BE4029
:102F4000324390464646721E96413343EFE5394B75
:102F50009F42CBD080252D0473422943A8E7084324
:102F6000411E8841A2E6002F00D13CE66346861A46
:102F7000CF1AB0429B415B42FB1A98461B024ED5CA
:102F8000161A6346B2429241591A5242891A5C4655
:102F900000227BE501430E00711E8E419FE71D005C
:102FA0000E00203DEE40B046202B04D04025EB1A09
:102FB00099400843814648464346411E884118438C
:102FC00074E60022002417E6161A6346B2429241C4
:102FD000591A5242891A3D0025E561469146154D20
:102FE00001E680220024120379E61D000E00203D38
:102FF000EE40B046202B04D04025EB1A9940084300
:1030000081464E464346711E8E411E4367E7861831
:1030100096429B4161445B42C9183D008CE547469E
:103020003743CED007224146324049E600273A00D6
:10303000E6E5C046FF070000FFFF7FFF70B50C4EBE
:103040000D031C0349005B002D0B490D240B5B0D88
:10305000B14208D0064900208B4203D1144320001E
:10306000441EA04170BD05430120002DFAD1F1E7B7
:10307000FF07000030B5144D0A034B00120B5B0D27
:10308000C90F0024AB4211DD104CA34210DC802498
:10309000640322430E4CE41A1F2C0CDD0D48C31AA6
:1030A000DA4013005C42002900D11C00200030BD32
:1030B000094BCC18FAE7094DE040AC4663449A400E
:1030C00013000343EEE7C046FE0300001D040000AA
:1030D0003304000013040000FFFFFF7FEDFBFFFF40
:1030E00070B500282DD0C317C5185D40C40F280047
:1030F000FDF7CAFB154B1B1A5B055B0D0A2815DD96
:103100000B38854000222D032D0B002110002D03CC
:103110000A0D2D0B12052A430D4D1B052A401343A2
:103120005B00E4075B082343190070BD020029001F
:10313000153291400A000B21081AC5402D032D0BB2
:10314000E3E70024002300250022DEE71E04000040
:10315000FFFF0F8010B5041E25D0FDF795FB144B23
:103160001B1A5B055B0D0A2812DD0B388440002218
:103170002403240B0021100024030A0D240B120544
:1031800022430C4C1B05224013435B00590810BD21
:1031900002002100153291400A000B21081AC44098
:1031A0002403240BE6E7002300240022E2E7C046C4
:1031B0001E040000FFFF0F80F0B54C00640D0B03F0
:1031C000621C5B0A460F5205C90F1E43C500520D13
:1031D000012A29DD374BE718FE2F1CDC002F3BDDD1
:1031E0008001431E98410722F3006D0F03432B43D8
:1031F0001A40002A04D00F221A40042A00D00433B7
:103200008022D2041A4024D00137FAB2FF2F02D014
:103210009B01580A01E0FF2200204002D205400A2B
:10322000C90710430843F0BD3543002C04D1002DDD
:103230000AD100220020F0E7002DECD08020C0034E
:103240003043FF22E9E7002400235B02580AE2B280
:10325000E3E7DB083C00F8E73B001733F3DB8023B0
:103260001B0433431E26F61B1F2E14DD022252427E
:10327000D71B1A00FA401700202E04D00E4A94469D
:103280006444A3401D432B005D1EAB4107223B431A
:103290001A400027ADE7094A2800A218954093403C
:1032A0006C1EA541F04007222B4303431A40002720
:1032B0009FE7C04680FCFFFFA2FCFFFF82FCFFFFF0
:1032C00010B5002903D1FDF7DFFA203002E0081C19
:1032D000FDF7DAFA10BDC046F0B54E465746DE4659
:1032E0004546E0B50F00002183B006008946002F57
:1032F00006DA3900002746428F41012149428946BA
:10330000002B07DA4946C9431000894619000023FB
:1033100042428B4134003D0092469846BB4269D8F8
:1033200066D041465046FFF7CBFF83463900300058
:10333000FFF7C6FF5B461B1A9C46203B9B4600D509
:1033400075E05146584681400B0051466046814029
:103350000A00BB4261D85ED034003D005946A41A31
:103360009D41002900DA7AE000210020012600902A
:10337000019159468E400196614601268E40614674
:103380000096002950D0D90756085F080E436346BF
:103390000EE0AF4201D1A6420CD8A41BBD410121D1
:1033A00024196D410022013B64185541002B06D0C1
:1033B000AF42EED9013B24196D41002BF8D10098A2
:1033C00001995B4600196941002B3DDB2E00DE4070
:1033D00063462C00DC405B46002B4BDB34005D4633
:1033E000AC4023006446A6403200801A994103E0B5
:1033F000B24296D9002000214B46002B04D0030096
:103400000C0000215842A14103B03CBC90469946B3
:10341000A246AB46F0BDB1429ED9002100200090EB
:10342000019161460029AED100980199E4E720237B
:10343000624651469B1AD9404046009161468840F9
:10344000030000990B4380E7624620239B1A2A0061
:103450009A40260013006246D6401E43B8E76146F4
:1034600020260127761A00200021F74000900191C4
:10347000019781E76746202362463500BC409B1ACE
:10348000DD4023002B43ADE7024670B50A439207A7
:103490002AD11E4DEE0104C808C9541B9443344080
:1034A00017D0D0B2D9B2401A2106014310D190B240
:1034B00099B2401A210401430AD110021902000AEC
:1034C000090A401A2102014302D1100E190E401AB6
:1034D00070BD9A42DFD010BA19BA884201D90120D2
:1034E00070BD0020C04370BD02780B7801300131FF
:1034F000002A09D09A4207D102780B7801300131B5
:10350000002A01D09A42EFD0D01A70BD010101010A
:1035100010B50549FDF712FDFEF706F801000E2073
:0C35200000F078FE10BDC04600007F43A4
:10352C0070B500F031FE314D002836D0304C200003
:10353C0000F0CCF82F4B18602F4B1A68904253D3E5
:10354C001A68821AF92A2CD9FA211860490020002D
:10355C0000F0A0F90121200000F0FEF8002814D0A2
:10356C000121200000F0B6F82449280000F097FF54
:10357C0000F00AFE0A220100280000F0EEFF2000F5
:10358C0000F0E0F8200000F0FCF82000052100F02D
:10359C0098F8200000F08CF903E000F0F5FD01280C
:1035AC00C4D8174800F0D6F9164C01000A22206046
:1035BC00280000F0B3FF1449280000F081FF2368B5
:1035CC0000205A1E0B2A09D80C20C01AFFF782FDC6
:1035DC0000220E4BFEF768FBFFF7E8FDFFF792FFAA
:1035EC00FA2000F0EBFD70BD1860A9E70C9C0020E0
:1035FC005895002060A5002064A50020143F011000
:10360C001CAA0020FCA60020163F01100000284038
:10361C0010B50221014800F09BF910BD1CAA002036
:10362C0070B51C4C1C49200000F0ACF8E1212000C6
:10363C00490200F0DBF80121200000F08DF8174D55
:10364C0000280AD01649280000F029FF20000A2182
:10365C0000F037F8200000F094F80021200001223F
:10366C0000F062F90121200000F076F8002806D065
:10367C000C49280000F013FF200000F082F896217E
:10368C002800890100F0A2FA01210E2000F008FEAA
:10369C0070BDC04658950020B80B00000C9C002053
:0836AC001E3F01102F3F011029
:1036B40070B50C0000F06CFD0500241800F068FDE6
:0A36C400854201D88442F9D270BD9E
:0A36CE0010B50122FFF7EFFF10BD59
:0836D80010B500F05BFD10BD10
:1036E000F8B506000F0000F055FD0500144C154913
:1036F000200000F0DAFE0A223900200000F03FFF2F
:103700001149200000F0D1FE29000A22200000F01B
:103710002AFF0E4F2000390000F0C7FEB3680A22CE
:10372000E91A200000F01FFF3900200000F0BDFE64
:10373000B168F3680A22C91A200000F014FFF8BD2E
:103740000C9C00204B3F0110523F0110543F0110D0
:1037500010B50249024800F0B9FE10BD443F011007
:043760000C9C00209D
:1037640010B5040000290BD100F012FD6368C01AE3
:10377400312805D832210122091A2000FFF798FFC9
:0A37840000F006FD6060012010BD9A
:02378E00704782
:10379000002310B543644360994201D0FFF797FFBF
:0237A00010BD5A
:1037A40070B505000E0000F0F3FC0A4C68600A498D
:1037B400200000F078FE0A223100200000F0DDFE37
:1037C4000649200000F080FE28003221FFF77DFF2B
:1037D40070BDC0460C9C0020363F01103D3F0110D7
:1037E4000022034B9A60DA601A615A617047C0463E
:0437F40058950020C4
:1037F800FA2010B50C00800000F0E2FC210002481D
:0C38080000F0E6F910BDC0460C9C00204A
:1038140010B5024800F0F8FBC0B210BD0C9C0020AB
:1038240073B51D4C0600200000F0A2FBC0B2642852
:1038340030D13000FFF7ECFF200000F0E5FB00255D
:10384400C3B201A83A2B06D04355200000F0DCFB9C
:103854000135C3B2F5E709F00FFD0500200000F0C3
:10386400D3FBC1B23039012903D8C9B2E8B200F0A0
:1038740059FD200000F0C8FBC0B20A2801D00D2871
:10388400F7D1200000F074FBC0B20A2802D1300046
:0C389400FFF7BEFF73BDC0460C9C002077
:1038A000002310B5436183680161C360040000F028
:0C38B00071FCA0602000FFF7B5FF10BD08
:1038BC0010B50400FFF7B0FF00F066FCA06010BD6F
:1038CC00F7B50191037E05006320002B08D0154E3F
:1038DC00FF27300000F00CFBC0B2002801D165209E
:1038EC00FEBD300000F004FBC0B20028F7D0300061
:1038FC0000F086FB04003C40682C08D009DC582CF6
:10390C000DD0632CEDD101992800FFF745FF632002
:10391C00E6E7712CFBD0762CE3D1C0B2E0E70023B4
:08392C002B76F4E70C9C00204F
:1039340070B50400150000290CD001230376002182
:103944002000FFF7C1FF632804D001212000FFF706
:08395400BCFEF4E7257670BD0E
:04395C00016070474F
:1039600010B5040003680121D8B200F09FFC236861
:103970000021D8B200F0D8FC022000F029FC236816
:103980000121D8B200F0D0FC052000F021FC236812
:103990000021D8B200F0C8FC23680021D8B200F0A2
:1039A00085FC2068044A0121C0B200F025FD942165
:0C39B000FCF7EEFD10BDC04640420F00C9
:1039BC0070B5124C12492068124A134B884213D12D
:1039CC006068904210D1A06898420DD100250D205E
:1039DC00256000F09DF904000C4809F0D5F80300AF
:1039EC0001202900A0409847216009480021A360CC
:1039FC00626008F05BFF0023236070BDC40F0020E1
:103A0C00DE8116F0299B72BD7ABE59D35542000057
:043A1C0020A10700DE
:103A20001B220A4B1A600A4B023A1A60094B0132F8
:103A30001A60094B08321A60084B05321A60084BAD
:103A4000033A1A60074B013A1A60704754950020F8
:103A5000509500204C9500203C950020409500207A
:083A6000449500204895002068
:103A68000B00F0B50F2700260E33023902003A404A
:103A7800D5B22C0000093034092A00DD07341C7047
:0A3A88005E70023B9942F1D1F0BDDF
:043A92001E2070473B
:023A9600704777
:103A980013B50400684608F0C7FB21000098FFF73B
:103AA800DFFF210001981031FFF7DAFF202016BD53
:103AB80010B50124054B0648D03300229B5E9C407C
:103AC80009F064F80021030020009847F401002061
:043AD8005542000053
:063ADC0010B509F0C5FB66
:023AE20070472B
:0A3AE40010B50C220AF014FF10BD0B
:0E3AEE00C36810B5002B01D09B68984710BD2F
:103AFC0010B500F06BFBFFF7C8FF00F021FF00F0E2
:103B0C0017FFE1210648490201F0CAFDFFF788FDC5
:103B1C00FFF706FD034B002BFAD000E000BFF7E7E0
:083B2C00A0950020000000003C
:043B340000207047B6
:103B380010B50400A369186804F0FDF80028F9D04E
:023B480010BDAE
:103B4C009C2370B55B00C35C05001400002B1CD1DA
:103B5C000368DB699847F0210C4B09012140C91817
:103B6C004B1E9941F0232340303B5A4253410F22C4
:103B7C000731144001330D3A012C02D0023C624251
:103B8C006241A869006804F0B0F870BD00FDFFFF49
:103B9C009C2370B55B00C55C0400002D14D18369B7
:103BAC00002B0CD01868002809D00368DB689847F4
:103BBC00A36904211D60A06907F01AFBA56100230D
:0A3BCC00FC34E3622363636370BD01
:103BD8007FB59C235B00C35C04000D00002B37D12C
:103BE8008669002E04D1042007F0D4FAA06106608B
:103BF800A369186800282CD16C3007F0CBFA0600AE
:103C08002223E25E2023E15E2B0004F01BFBA36964
:103C18001E602423E25E531C06D0A0692621635E41
:103C28000068032104F01CFBA369186800280FD062
:103C380000220A4B69460393094B009401930292B0
:103C480004F089F8039B002B02D09B6868469847CC
:103C58007FBD290004F03AF8DBE7C046583F011061
:043C6800B53C001057
:103C6C0010B582684368006851104018D20701D51E
:083C7C000268D358984710BDFF
:103C84009C2210B552000300805C002806D001205D
:103C940000F098FA054801F089FD10BD9B69002BDE
:103CA400FBD01868431E9841C0B2F6E7A0950020E7
:103CB4009C23F7B55B00C35C0500002B2AD180264A
:103CC4007600AB69186804F028F8002822D02C008C
:103CD400FC34636BB3421DD006F0C2FDAB69012214
:103CE40018686B46DF1D036839005B699847636B8E
:103CF400B3420CD02B00E26A397828339954FF225E
:103D0400E36A01331340E362636B0133636306F0D8
:063D1400BDFDD6E7F7BD7E
:103D1C0010B50400FFF7B7FE844203D2034B240115
:103D2C00E05E10BD01204042FBE7C046F4010020DC
:103D3C0070B504000D0001F035FD03000020834236
:103D4C0004D0236829001B6C2000984770BD08B470
:103D5C00024B9C46024BC01A08BC60473D3D00100C
:043D6C004001000012
:103D700037B56B46DC1D9C2321705B00C35C0500DE
:103D8000002B04D0C9B20A48FFF7D8FF3EBDAB698B
:103D9000186803F0D4FF0028F9D0AB690122186835
:103DA000210003681B6998470130431E9841EDE7E5
:043DB000A0950020BA
:103DB400F7B5060001911700002401F0F7FCA042BA
:103DC4000DD0A7420BD93D1B402D00D94025019BA6
:103DD4002A001919300001F04FF96419F1E72000A5
:103DE400FEBD08B4024B9C46024BC01A08BC604797
:083DF400B53D00104001000084
:103DFC009C2370B55B00C35C05000E001400002B07
:103E0C0005D00F48FFF7D0FF0400200070BDAB6950
:103E1C00186803F08EFF0028F9D0AB6901211B68EC
:103E2C0018009B6E68301B6B9847AB6922001868B2
:103E3C00310003681B699847431CE6D10024E4E772
:043E4C00A09500201D
:103E5000F0B5C3B0050001F013FC932380229B0052
:103E6000E918CB6852000400D31A984201DDCC68EF
:103E7000141B01AB220002A92800A82601F0FBF9BF
:103E80000021019802AB241A76001C19932380228A
:103E90009B00EB18DF685200974211D081420FD08F
:103EA000DF6897420AD05A68675CAA1897555A6823
:103EB0000132D2B25A60DA680132DA600131E5E7E4
:043EC00043B0F0BD5E
:103EC40070B5040000F066FD2000FFF7BFFF9323E8
:103ED4009B00E318DD68200000F063FD280070BD3E
:103EE40008B4034B9C46034BC01A08BC6047C04649
:083EF400C53E00104001000072
:103EFC009C2310B55B00C35C0400002B05D0064866
:103F0C00FFF7DAFF0400200010BDFC3406F0A4FC1F
:0C3F1C00646B06F0B7FCF6E7A0950020EF
:103F280070B5040000F034FD2000FFF78DFF9323E7
:103F38009B00E318DA68002A09D0A8229B6852007F
:103F4800E3189D5C200000F02AFD280070BD0125C3
:103F58006D42F7E708B4034B9C46034BC01A08BCF4
:0C3F68006047C046293F001040010000E7
:103F74009C2310B55B00C35C0400002B05D00B48E8
:103F8400FFF7D0FF0400200010BD06F069FC2300F9
:103F9400FC335A6B002A05D01B6B2834E45C06F012
:103FA40075FCF0E701246442F9E7C046A0950020BF
:103FB40070B5040000F0EEFC2000FFF747FF9323E8
:103FC4009B00E318DA68002A10D0A8219A684900F7
:103FD400A218555C9A680132D2B29A60DA68013A42
:103FE400DA60200000F0DDFC280070BD01256D4280
:103FF400F7E708B4024B9C46024BC01A08BC604762
:08400400B53F0010400100006F
:10400C009C2310B55B00C35C0400002B05D00E484C
:10401C00FFF7CAFF0400200010BD06F01DFC2300B2
:10402C00FC335A6B002A0CD01A6B2834A45C1A6B24
:10403C000132D2B21A635A6B013A5A6306F022FC6F
:0C404C00E9E701246442F9E7A095002098
:10405800802210B50400520000210AF0E9FC230078
:0E4068000022FC335A6020009A60DA6010BD1E
:10407800F0B53A4B3A4DFA2685B000240833009340
:104088002B602023B6006C60AE6036486B61AC6173
:10409800EC61FFF7DDFF9C2201205200A854FFF7D6
:1040A80039FE07002000FFF735FE2F4D20232F840F
:1040B800012700997F426C60AE6068842B482960B4
:1040C8006B61AC61EC61AF84EF84FFF7C1FF9C22A8
:1040D80019205200AC54FFF71DFE01901A20FFF77B
:1040E80019FE02901C20FFF715FE03901B20FFF716
:1040F80011FE20231E4D00996B616B46296099883B
:104108006C6029841989AE6069849989E8841948A2
:10411800A984AC61EC61FFF79BFF9C221920520037
:10412800AC54FFF7F7FD01901A20FFF7F3FD2023A9
:10413800114D00996B616B469B8868846C60AE601A
:104148000E482960AC61EC612B84AF84EF84FFF7E3
:104158007FFF9C225200AC5405B0F0BD643F0110B3
:104168000C9C0020349C0020589800208098002047
:1041780094990020BC990020D09A0020F89A002039
:0C41880010B5040003F01CFF200010BD67
:1041940007B50649684603F054FF00980199FA22CE
:1041A40000239200FCF78CFB0EBDC046D00F00200C
:1041B40007B50349684603F044FF00980EBDC046A6
:0441C400D00F0020F8
:0841C80010B507F073FA10BDF9
:0841D00010B507F05DF910BD08
:1041D80010B5044C200003F0FFFE200003F0FCFEA5
:0841E80010BDC046D00F0020FD
:1041F00010B5054C200003F063FF044A0449200079
:1042000006F0B0FD10BDC046D00F0020F001002028
:0442100089410010D0
:10421400F7B507000C00FFF73AFC874237D22000BD
:10422400FDF7A0F9041C01201D4B3E011B689840BA
:104234000138FDF797F9011C201CFCF7A5FC194D6A
:104244000190AB199C68002C11D1FFF720FC874228
:104254001ED2775F242006F09FFF0400390003F08C
:104264005BFCAB199C600221200003F021FC0021BF
:104274000198FCF7DFFA00280DD0200003F06AFC57
:104284002421200006F0B8FF0023AD19AB60F7BD70
:1042940001277F42DEE70199200003F0FDFBF6E7EA
:0842A400D4030020F401002006
:1042AC00F7B51D4D03010193EB18DC6807000E00F8
:1042BC00002C12D1FFF7E7FB874219D2019B5F5FFD
:1042CC00042006F065FF002304000380837039008E
:1042DC0005F09BFC019BED18EC60012E13D0002E19
:1042EC0009D0022E13D0200003F0BBFB022106E004
:1042FC0001277F42E4E7200003F0B3FB31002000EC
:10430C0003F0BAFB02E0200003F0A0FBF7BD200095
:0C431C0003F0A7FB0121F2E7F4010020F0
:10432800F0B585B006000391FFF7AFFB86421DD2BA
:10433800114D3701EB19DC68002C13D1FFF7A5FBF1
:10434800864215D27E5F042006F024FF0023040075
:10435800039A0380837031000092ED19012205F061
:1043680066FCEC600399200007F096FD05B0F0BDEF
:0C43780001267642E7E7C046F401002071
:10438400F7B506000F001400FFF712FF0500D02355
:104394001B065B680122F3401340BB4206D1FFF7C2
:1043A40007FF401BA042F2D90020FEBDD0231B060C
:1043B4005B680122F34013409F4205D0FFF7F8FEEB
:1043C400401BA042F2D9EFE7FFF7F2FE0190D023A1
:1043D4001B065B680122F34013409F4205D1FFF79F
:1043E400E7FE401BA042F2D9DEE7FFF7E1FE019BA6
:0443F400C01ADAE72A
:1043F80070B504000D001600FFF747FB844207D292
:10440800054B2401E05E32002900FFF7B7FF70BDBD
:0C44180001204042F7E7C046F4010020FC
:10442400F7B5C31D0193002306000D00041D00937E
:1044340021780A22280000F0A0F82E210700280085
:1044440000F035F8009B3F18DB190093019B013401
:104454009C42EDD1F17928000A2200F08EF8009BED
:044464001818FEBD69
:10446800034B044A08331360002353607047C04667
:08447800983F0110349E002062
:1044800070B5040008000D000AF0CAFD23680200A0
:0A44900029005B682000984770BD0A
:10449A0010B50B1E02D0FFF7EEFF0300180010BD87
:0844AA0010B5FFF7F5FF10BD8E
:0A44B20010B503681B68984710BDA1
:1044BC0010B50249FFF7DEFF10BDC046A43F011046
:1044CC0070B50400FFF7E3FF05002000FFF7F0FFD5
:0444DC00401970BD56
:1044E000F0B58BB06B461500002205330600DA7775
:1044F0000800012D00D80A2509AC2900FCF744F872
:10450000CAB2130037330700DBB2092902D81300FF
:104510003033DBB2013C2370002FEED1210030009C
:08452000FFF7BBFF0BB0F0BD7B
:10452800F8B506000C00151E04D10368C9B21B6853
:104538009847F8BD0A2A0CD100290BDA2D21FFF77C
:10454800B4FF614207002A003000FFF7C5FF3818A2
:0E455800EFE7D2B221003000FFF7BEFFE9E727
:1045660010B5002A04D10368C9B21B68984710BD6C
:08457600D2B2FFF7B2FFFAE731
:08457E0010B5FFF7F1FF10BDBD
:04458600002070475A
:02458A00704778
:02458C00704776
:1045900010B5054BC458002C05D0236820005B687B
:0C45A0009847A468F7E710BD8C050000E8
:1045AC0070B50D00054BC458002C06D023682000B4
:1045BC009B6829009847A468F6E770BD8C0500003D
:0845CC00004870474440011053
:1045D40010B50400044B036005F02AFA200005F02E
:0C45E40041FA200010BDC046C43F011089
:1045F00010B50400FFF7EEFFB2212000C90006F05D
:06460000FDFD200010BDCD
:10460800F0B50F4B0500C458002385B0019102AAEC
:10461800D61C002C12D023680199DF68320003AB46
:104628002000B84731780300042905D0039A2800F0
:1046380004F0DAFB05B0F0BDA468E8E73178F5E7E7
:044648008C050000DD
:10464C0070B50E0005000021002A0CD10A4BC4588D
:10465C00002C0ED0236800221B69310020009847E3
:10466C00002804D00121280004F07AF970BDA46858
:0C467C00EEE72100F7E7C0468C050000C7
:1046880070B50E0005000021074BC458002C07D058
:104698002368310020005B699847A4680100F5E7AA
:0C46A800280004F071FA70BD8C050000C1
:1046B400F8B505000E001700084BC458002C07D0AD
:1046C400236820009B693A0031009847A468F5E705
:1046D4002800012104F0C8FAF8BDC0468C0500008A
:1046E400F0B5002187B0040004F0C0FD6B46002241
:1046F400DA80238901A9A588E28889260B731B0A1D
:104704004B730F4BEF27CB81042376000E80113EB1
:10471400FF3ECE704E710D728A72FF330A34013E31
:104724002D0A120AC871CA720F718E714D720B82F2
:10473400122220000AF0ECF8200007B0F0BDC046B9
:04474400010200006E
:10474800F8B506000C000500002730000AF064FCEC
:10475800AB1B984205D92B7867702370013502345A
:08476800F3E74000C0B2F8BD08
:1047700070B504000C4BC558002D07D02B682800DD
:104780001B6A9847002802D1AD68F5E72800A925E3
:10479000064BED006353064BE118FFF7D5FF635D51
:1047A000C0186055601970BD8C0500000203000040
:0447B0004A050000B6
:1047B40070B5A125064BED004353064B0400C11808
:1047C4000548FFF7BFFF635DC0186055601970BDF1
:0C47D400020300000A050000A73F0110CE
:1047E00070B59925064BED004353064B0400C018E5
:1047F000FFF752F9635DC0186055601970BDC0467F
:0848000002030000CA040000DD
:104808000023F0B587B003A98B71B123DB00C35C2B
:1048180005000B7101234B71BF33CB713A330B7217
:10482800CE2309249B00154AC71803923800092291
:104838000AF06CF8124BEE58002E17D0336800219E
:104848001B6830009847C37882781B021343093BE2
:104858000193CE2301009B00E01828180931019A22
:104868000AF054F8019BB668E418E5E73800054BF0
:10487800EC54054B2412EC5407B0F0BD0902FFFFBD
:0C4888008C0500003A0300003B03000018
:1048940073B504000D00160007F0DEFA80235B00F8
:1048A400010000932A003300200004F099FC024B1D
:0C48B4002000236076BDC046C43F011008
:1048C00010B50E4A04008358002B12D18150B12339
:1048D000DB00E25C48790A71E25C1218E2540B6872
:1048E00008005B6A9847238918182081012010BDB1
:1048F00013009A68002AFBD19960E8E78C05000054
:104900001FB5040004F066FC0100684603F072FD68
:104910004021684603F0E4FD074BE458002C06D024
:1049200023682000DB6969469847A468F6E7684673
:0C49300003F067FD1FBDC0468C050000B1
:10493C0010B50400FFF7DEFF200004F0A9FB10BD4A
:10494C0070B50D4D2B78BFF35B8F0C4CDB0711D47E
:10495C00280006F015FA00280CD05E220849200029
:10496C00FFF792FF280006F02DFA064A06492000B0
:10497C0006F0F2F9200070BD4C9D0020CC9F002069
:0C498C0041230000F0010020D545001080
:0E49980010B5FFF7D7FF03685B6F984710BD9F
:0E49A60010B5FFF7D0FF03689B6F984710BD58
:0E49B40010B5FFF7C9FF0368DB6F984710BD11
:0849C20010B503F0C6FE10BDA4
:0849CA0010B503F07CFE10BDE6
:0849D20010B503F0ACFE10BDAE
:0249DA00704724
:0249DC00704722
:0249DE00704720
:0849E000436A78331878704730
:0649E800FC30806A7047FC
:0449EE0001207047ED
:0849F40000487047AC410110BE
:1049FC00F0B505009BB007AC4B220F002000002146
:104A0C000AF014F82B00FC339B6A05215A1E9341C3
:104A1C0000202E795B421940731CDBB20193AB7BF7
:104A2C0002932B7B03936B7B0493874200D0A5E00E
:104A3C006176534906A86183102161770B39E177C0
:104A4C002421471D0922F9772527627406A8053A07
:104A5C00C019A274033A027006A8C71D0320494B63
:104A6C00F8772380BF3BFF3BA370812308AFFA7715
:104A7C0004275B00A380823BE37162754E3B227678
:104A8C00A27706A80832121823722A3BD7776372D2
:104A9C000A220333A3723C4B06A8A38102231218EB
:104AAC00D1770591073706A97F18FB7706270521D3
:104ABC0009A8C77711A801702D2006A94018242138
:104ACC00E672A373E674A375E37501702E2006A934
:104ADC00401807702F204018694606700E7912A8EE
:104AEC0006703126072006A9761830703226761803
:104AFC0005213170332606A9761869460F7A06A966
:104B0C003770224E102726863726761837700927DD
:104B1C0014AE377039260427761837703A26761873
:104B2C0069460F7906A93770194E1D35268741261F
:104B3C00761830703B30401805210170432106A8CF
:104B4C00091868464426007B0870124906A880198B
:104B5C00018011492800D1874A2206A952186946BA
:104B6C00097C11704B2206A952181370402219AB04
:104B7C001A7021000B3209F0C7FE28001BB0F0BDE3
:104B8C00052400000902000002020000034000009E
:0C4B9C00020A00000240000007050000B3
:104BA80010B504000A4B08330360FFF7CBFE04F08E
:104BB8003DFF2000D03003F028FD20007C3003F0BA
:104BC80024FD2000703003F020FD200010BDC046F9
:044BD8006441011023
:104BDC0010B50400FFF7E2FF94212000490006F015
:064BEC0007FB200010BDD4
:084BF20010B5FFF7DEFE10BD57
:104BFC0010B50400024B036003F072FB200010BDE3
:044C0C008C400110C7
:104C100010B50400FFF7F2FF2000282106F0EEFA9D
:044C2000200010BDA3
:104C240010B50400024B036003F05EFB200010BDCE
:044C34005C400110CF
:104C380010B50400FFF7F2FF2000342106F0DAFA7D
:044C4800200010BD7B
:104C4C0010B50400024B036003F04AFB200010BDBA
:044C5C00744001108F
:104C600010B50400FFF7F2FF2000382106F0C6FA65
:044C7000200010BD53
:104C740070B50D000400072217490F3009F048FEF3
:104C840040220221280003F01BFC40222073022151
:104C9400280003F01CFC402260730321280003F069
:104CA4000FFCA073280003F0ABFB002804D1AF2253
:104CB4000A490B4805F026FD220021000023783222
:104CC40085311165536513701373D93450321374DD
:104CD4005465936570BDC046A8400110E4400110BE
:044CE4005241011028
:104CE800F0B504000E0087B01500FFF75FFEF288EC
:104CF80023799A4236D1002D34D173780593012B4C
:104D08002DD1F378202B26D13789072F23D12300E3
:104D18000F33039307333A0019000398049309F0FB
:104D2800CFFD059D002816D03A000499039809F094
:104D3800EDFD217CE07B09020918607CE77C00041A
:104D48000918A07C0097000609182068237D476B86
:104D5800627D2000B847F378212B00D10125280077
:084D680007B0F0BD0025FAE7D9
:104D700070B50400FFF71EFEFFF7E8FD217B04F08D
:104D8000D9FC23002200C833853225001A60200098
:104D900000234732843513607C302B7003F0F1FB25
:104DA0002B78002B03D123682000DB6B984770BD64
:104DB00070B504002500FC35FFF7FCFD6E6A002E7F
:104DC00005D0DE220E49FF320E4805F09DFC23007F
:104DD000D9332B62FFF7BAFD617B04F001FC6862F6
:104DE00025002000D8352E70D03003F0CAFB2B7878
:104DF000002B03D1236820009B6B984770BDC046F1
:084E0000E4400110B440011070
:104E080010B582684368006851104018D20701D570
:084E18000268D358984710BD51
:104E2000F0B50400002687B002ADFFF7C3FDFFF721
:104E30008DFDA17B032340220095059604F04AF9DD
:104E40002800FEF754FEFFF781FD164F164B217B1D
:104E50004022EF600393009502230294049604F02D
:104E600039F92800FEF743FEFFF770FD0F4B617B19
:104E70004022EF600393009502230294049604F00D
:104E800029F92800FEF733FEFFF760FD2200FC320F
:104E9000617B4023126A04F043FB0120D834207068
:104EA00007B0F0BD9C400110714D0010B14D0010D5
:104EB000022370B543710023040083600C4B15007E
:104EC00008330360703003F04FFB20007C3003F0A8
:104ED0004BFB2000D03003F047FB2300FC339D62E6
:104EE000FFF734FD2100FFF7EBFC200070BDC0464A
:044EF0006441011008
:104EF40070B504000D00FFF75BFD230078331D70CF
:104F0400002D42D1260084363378002B05D0FFF7DC
:104F14001BFD217B04F0C6F9357023002200250017
:104F24000026C83385327C3528001A605E6003F0A1
:104F340026FB280003F01CFBB04205D1A222154930
:104F44001548520005F0DEFB2500D8352B78002BE0
:104F540005D0FFF7F9FC217B04F0A4F92E7023009F
:104F64002200FC33D93225001A620022D0352800F1
:104F74005A6203F004FB280003F0FAFA002804D173
:104F8400A722044952000548DCE72000703003F0F2
:104F9400F6FA70BDE4400110C2400110D340011084
:104FA40010B50400FFF704FD00212000FFF7A0FF67
:024FB40010BD2E
:104FB60070B50D000400FFF7FAFC042D03D00021A4
:084FC6002000FFF794FF70BD0D
:104FCE00F8B5040016000D001F00FFF7ECFC0423DB
:104FDE003370EA88237900209A4210D16A78012A28
:104FEE000DD1EB78212B06D0222B09D0202B19D1F5
:104FFE003070163401E032700F3407203C60F8BD7B
:10500E00A988114000D011002000FFF76CFF01228B
:10501E00AB8800201340E366AB8892181340A3665A
:0A502E003270ECE703233370E9E76A
:1050380010B504008AB0FFF7ABFC684603F046F9E8
:1050480020000A4B694670300093099403F0ACFACB
:105058002000FFF7A4FC064B00211A68684603F0FD
:1050680089F96846FFF7C6FD0AB010BD8C400110EB
:04507800B040011033
:10507C0070B504000E008EB01500FFF787FC01A878
:10508C0003F022F920000B9600260D4B01A90C957C
:10509C007C300DAD01930A942E7003F083FA20003E
:1050AC00FFF77BFC074B31001A6801A803F060F98D
:1050BC002C7801A8FFF7B0FD20000EB070BDC046E3
:0850CC005C400110B04001102E
:1050D40070B5040025008435FFF76AFC2B78002B9B
:1050E40010D12600CC363368002B0BD0FFF72CFCF4
:1050F4002200217B8532336804F0B2FA002801D003
:0651040001232B7070BDB9
:10510A00F0B585B01F000AAB1B7804000393029127
:10511A000192FFF73CFC00233B60230078331B78A5
:10512A00002B21D0230084331B78002B1CD12600AE
:10513A004025CC363368ED1A019B9D4200D91D00EB
:10514A00019B002B06D02300C83318682A00029955
:10515A0009F0DBFB33685B193360039B3D60002B6E
:10516A0002D02000FFF7B1FF2000FFF717FC05B0BF
:02517A00F0BD86
:10517C00F0B50400406A85B0030078331D78012631
:10518C00002D05D1303425703500280005B0F0BD58
:10519C000027009603ABE26AA16A0397FFF7AFFF03
:1051AC00039AE36AA16A9B1A8A18E362A262BB4261
:1051BC0002D130342670E8E7606AFFF785FF3D00C6
:0251CC00E3E717
:1051D000F0B51C0093B0019205000F00FFF7DCFB57
:1051E00063426341DBB20093002C00D103AC002684
:1051F00004A8266003F06EF86A46109428003D2447
:105200000F4B12780493019B04A90F9311AB1A70F2
:1052100002ABE418D03026700D950E9703F0C8F954
:105220002800FFF7C0FB074B31001A6804A803F001
:10523000A5F8247804A8FFF709FD200013B0F0BDFD
:0852400074400110B0400110A0
:10524800030070B5FC335B6A0400002B0ED1050027
:10525800D8352B78002B09D1FFF774FB22004023A7
:0E526800D932617B04F058F901232B7070BD20
:10527600F8B506001F0000233B60330078331B7827
:105286000800002B19D03300D8331B78002B14D11B
:105296003400FC34656A954200D915002A00216A5B
:1052A60009F035FB3D60236A5B192362636A5D1B67
:0C52B600656202D13000FFF7C4FFF8BDB4
:1052C20037B50400406A030078331D78002D04D1FD
:1052D20035342570013528003EBD0023E26A019372
:1052E200A16A01ABFFF7C6FF019BA26AD218A262B4
:1052F200226B1168CB181360E36A01995B1A2100D3
:10530200E36234310978002902D11268002A01D1FE
:10531200002B03D1012335342370DCE7606AFFF7E9
:0653220092FF0025D7E711
:0653280016204042704710
:0A532E000020814200D119387047B9
:045338000120704799
:06533C00162040427047FC
:06534200162040427047F6
:045348001120704779
:02534C007047A8
:02534E007047A6
:025350007047A4
:1053540010B503689B6C984710BD08B4024B9C467B
:10536400024BC01A08BC60475553001040010000AE
:0453740070477047C7
:0453780070477047C3
:08537C0010B50368984710BD4D
:1053840010B5040001207834FEF71CFF207810BD0E
:1053940008B4034B9C46034BC01A08BC6047C04684
:0853A4008553001040010000D8
:1053AC00012270B501235242FF210B4806F0BCF8D4
:1053BC00FEF7EAFE0500094C78342378002B03D065
:1053CC000120FEF7FBFEF8E7FEF7DEFE401BC728C8
:1053DC00F6D9FEF76BFB70BDEC9D0020A09500206C
:1053EC0007B50122019101A9FFF742FE002801D067
:0A53FC0001980EBD01204042FBE7BE
:1054080008B4034B9C46034BC01A08BC6047C0460F
:08541800ED5300102801000013
:1054200013B56B46DC1D0023012221002370FFF71A
:10543000CFFE002801D0207816BD01204042FBE7B6
:1054400008B4034B9C46034BC01A08BC6047C046D7
:085450002154001028010000A6
:10545800F7B5040001930E001500FFF7A7FA9C2387
:105468009B00E758002F04D0089B019A29003000C0
:10547800B84798239B00E650019A0433E55004335B
:0A548800E250089A0433E250F7BD29
:10549200F8B50600FFF78DFA9D23AD2700259B0086
:1054A200F418BF00F359AB4209D920001034231F6E
:1054B2001B68002B03D01B6898470135F2E7F8BD43
:1054C400962310B5DB00984203D10121014806F070
:0854D40011F810BDEC9D002051
:1054DC0010B582684368006851104018D20701D596
:0854EC000268D358984710BD77
:1054F400104B70B5036003000F4AFC33DA620F4AA5
:1055040004001A630E4A5A649D239B00C618403354
:10551400C518AE4204D0103D2800FEF7E6FAF8E7BD
:1055240020002930FF3004F049FF2000FFF73AFB48
:10553400200070BDEC41011064420110C44201100E
:04554400D44201103C
:1055480008B4034B9C46034BC01A08BC6047C046CE
:08555800F554001028010000C9
:1055600008B4034B9C46034BC01A08BC6047C046B6
:08557000F55400102C010000AD
:1055780010B50400FFF7BAFFAE212000890005F03E
:0655880039FE200010BDF9
:1055900008B4034B9C46034BC01A08BC6047C04686
:0855A000795500102C010000F8
:1055A80008B4034B9C46034BC01A08BC6047C0466E
:0855B8007955001028010000E4
:1055C000F0B585B003930AAB1E880BAB04001F88AF
:1055D0000D00029206F042FC039B0100029A009625
:1055E00001972000FFF764FC200029300021FF30E4
:1055F00004F0BAFE2300FA2200264133FF33920062
:105600009A605E601A4B1B4A23602300FC33DA6207
:10561000194A20001A63194A51305A648022FF3017
:105620005200310009F008FA93239B00E3185E60F2
:105630009E60DE609D239B00E318DE60A1239B003B
:10564000E318DE60A5239B00E318DE60A9239B001E
:10565000E318DE60AD239B00E650443BE650B542C4
:1056600002D02000FFF7E8FC200005B0F0BDC046E6
:10567000EC41011064420110C4420110D4420110F7
:1056800070B50500FFF788F92B000024D8331B788C
:10569000A34205D12B00FC335C6A402C00D9402486
:0A56A0002800FFF780F9200070BD1C
:1056AC0070B586B00400FFF771F99C23304A9B005B
:1056BC00E2502000FFF771F92E4B200005932E4B82
:1056CC000294039300230493FFF760F9AD239B002E
:1056DC00E558032D15D86A1CE2502E01403BF618F4
:1056EC00A6193000FEF7FDF9A0222D01059B6519C6
:1056FC009200AD182B60002B03D05B6802A9300020
:10570C0098472000FFF749F902A8FEF7EAF9BC20F8
:10571C0005F03EFD00260500184B310003600661C4
:10572C00403005F08DFF2800543005F025FF802215
:10573C00134B2800009352003300182106F01CF87C
:10574C0097239B00E5500F4B082205930E4B31001D
:10575C0003A8029309F06AF902A9280006F016F8CA
:10576C0002A8FEF7BEF92000FEF76CFB06B070BD78
:10577C00C5540010C4410110513E0010B856011020
:0C578C00DC410110D0410110AD530010B1
:1057980008B4034B9C46034BC01A08BC6047C0467C
:0857A800AD56001040010000A5
:0657B0007830007870471C
:1057B80037B50E4C200005F091FE0D4D0D492A001D
:1057C800200005F0CBFA012201920B4AF82300923F
:1057D80000220A4C5B0111002000FFF7EDFE2A00B1
:1057E8000749200005F0BAFA37BDC046EC9D0020F5
:1057F800F001002003B5001012200000A095002041
:04580800F554001043
:10580C00010010B5002807D10420404200F0D1F966
:10581C0004235B42180010BD132001F0C1FD0023CE
:10582C009842F7D10120404200F0C3F90123F0E780
:10583C0080B5EFF30583002B03D1EFF31083002B1E
:10584C0006D00620404200F0B4F90620404280BD4C
:0C585C00014F00DFFBE7C0460D580010B4
:1058680070B500282CD084680568002C0FD003225E
:1058780023001340144202D1C2680F2A15D8092107
:105888000020494202F034F80024200070BDC368AB
:10589800002BF4D1114B1A0090321068002811D057
:1058A80000F04AFB041E14D00123F322A370002346
:1058B8002270A360E3600A4A084B65605A66E4E711
:1058C8000500E7E7043301221021D86F00F0B7FA8A
:1058D800E8E70521494202F00BF8D6E7D803002093
:0458E800B55900109E
:1058EC0070B5041E02D00378F32B08D004212000DD
:1058FC000425494201F0FAFF6D42280070BD83680F
:10590C00002B0DD003256D42200001F00FFB00226F
:10591C00290001F0A3FCA0680028F5D101F07AFB66
:10592C000025A3782570DB07E7D5084B1A009032C9
:10593C001068A84203D0210000F00EFBDDE7043311
:10594C002100D86F00F0AFFAD7E7C046D80300208B
:10595C0070B50300022510000124284014402A428F
:10596C0014D1EFF3108672B6DA6815000D40002CD6
:10597C0006D0A94206D110008843D860100001E07F
